{"abi":[{"type":"constructor","inputs":[{"name":"_tokenAddress","type":"address","internalType":"address"}],"stateMutability":"nonpayable"},{"type":"function","name":"deposit","inputs":[{"name":"amount","type":"uint256","internalType":"uint256"}],"outputs":[{"name":"","type":"bool","internalType":"bool"}],"stateMutability":"nonpayable"},{"type":"function","name":"deposited","inputs":[{"name":"","type":"address","internalType":"address"}],"outputs":[{"name":"","type":"uint256","internalType":"uint256"}],"stateMutability":"view"},{"type":"function","name":"owner","inputs":[],"outputs":[{"name":"","type":"address","internalType":"address"}],"stateMutability":"view"},{"type":"function","name":"permitDeposit","inputs":[{"name":"_owner","type":"address","internalType":"address"},{"name":"_spender","type":"address","internalType":"address"},{"name":"_value","type":"uint256","internalType":"uint256"},{"name":"_deadline","type":"uint256","internalType":"uint256"},{"name":"v","type":"uint8","internalType":"uint8"},{"name":"r","type":"bytes32","internalType":"bytes32"},{"name":"s","type":"bytes32","internalType":"bytes32"},{"name":"amountDeposit","type":"uint256","internalType":"uint256"}],"outputs":[{"name":"","type":"bool","internalType":"bool"}],"stateMutability":"nonpayable"},{"type":"function","name":"token","inputs":[],"outputs":[{"name":"","type":"address","internalType":"contract MyTokenPermit"}],"stateMutability":"view"},{"type":"function","name":"tokensReceived","inputs":[{"name":"from","type":"address","internalType":"address"},{"name":"_value","type":"uint256","internalType":"uint256"}],"outputs":[{"name":"","type":"bool","internalType":"bool"}],"stateMutability":"nonpayable"},{"type":"function","name":"withdraw","inputs":[{"name":"amount","type":"uint256","internalType":"uint256"}],"outputs":[{"name":"","type":"bool","internalType":"bool"}],"stateMutability":"nonpayable"}],"bytecode":{"object":"0x6080604052348015600f57600080fd5b50604051610960380380610960833981016040819052602c91605e565b60018054336001600160a01b031991821617909155600280549091166001600160a01b0392909216919091179055608c565b600060208284031215606f57600080fd5b81516001600160a01b0381168114608557600080fd5b9392505050565b6108c58061009b6000396000f3fe608060405234801561001057600080fd5b506004361061007d5760003560e01c8063b6b55f251161005b578063b6b55f25146100e8578063cb13cddb146100fb578063f204570014610129578063fc0c546a1461013c57600080fd5b806324a756d1146100825780632e1a7d4d146100aa5780638da5cb5b146100bd575b600080fd5b610095610090366004610739565b61014f565b60405190151581526020015b60405180910390f35b6100956100b8366004610763565b6101df565b6001546100d0906001600160a01b031681565b6040516001600160a01b0390911681526020016100a1565b6100956100f6366004610763565b61032c565b61011b61010936600461077c565b60006020819052908152604090205481565b6040519081526020016100a1565b61009561013736600461079e565b6104d7565b6002546100d0906001600160a01b031681565b6002546000906001600160a01b031633146101a75760405162461bcd60e51b815260206004820152601360248201527234b73b30b632103a37b5b2b71039b2b73232b960691b60448201526064015b60405180910390fd5b6001600160a01b038316600090815260208190526040812080548492906101cf90849061082e565b9091555060019150505b92915050565b6001546000906001600160a01b031633146102295760405162461bcd60e51b815260206004820152600a60248201526937b7363c9037bbb732b960b11b604482015260640161019e565b336000908152602081905260409020548211156102885760405162461bcd60e51b815260206004820152601f60248201527f776974686472617720616d6f756e7420657863656564732062616c616e636500604482015260640161019e565b60025460405163a9059cbb60e01b8152336004820152602481018490526001600160a01b039091169063a9059cbb906044016020604051808303816000875af11580156102d9573d6000803e3d6000fd5b505050506040513d601f19601f820116820180604052508101906102fd9190610841565b50336000908152602081905260408120805484929061031d908490610863565b9091555060019150505b919050565b6002546040516370a0823160e01b815233600482015260009183916001600160a01b03909116906370a0823190602401602060405180830381865afa158015610379573d6000803e3d6000fd5b505050506040513d601f19601f8201168201806040525081019061039d9190610876565b10156103eb5760405162461bcd60e51b815260206004820152601e60248201527f6465706f73697420616d6f756e7420657863656564732062616c616e63650000604482015260640161019e565b6002546040516323b872dd60e01b8152336004820152306024820152604481018490526000916001600160a01b0316906323b872dd906064016020604051808303816000875af1158015610443573d6000803e3d6000fd5b505050506040513d601f19601f820116820180604052508101906104679190610841565b9050806104ac5760405162461bcd60e51b81526020600482015260136024820152721d1c985b9cd9995c919c9bdb4811985a5b1959606a1b604482015260640161019e565b33600090815260208190526040812080548592906104cb90849061082e565b90915550909392505050565b60025460405163d505accf60e01b81526001600160a01b038a811660048301528981166024830152604482018990526064820188905260ff8716608483015260a4820186905260c48201859052600092169063d505accf9060e401600060405180830381600087803b15801561054c57600080fd5b505af1158015610560573d6000803e3d6000fd5b5050600254604051636eb1769f60e11b81526001600160a01b038d811660048301528c81166024830152869450909116915063dd62ed3e90604401602060405180830381865afa1580156105b8573d6000803e3d6000fd5b505050506040513d601f19601f820116820180604052508101906105dc9190610876565b10156106185760405162461bcd60e51b815260206004820152600b60248201526a1a5b9cdd599a58da595b9d60aa1b604482015260640161019e565b6002546040516323b872dd60e01b81526001600160a01b038b81166004830152306024830152604482018a905260009216906323b872dd906064016020604051808303816000875af1158015610672573d6000803e3d6000fd5b505050506040513d601f19601f820116820180604052508101906106969190610841565b9050806106e55760405162461bcd60e51b815260206004820152601a60248201527f737563636573735472616e7366657246726f6d206661696c6564000000000000604482015260640161019e565b6001600160a01b038916600090815260208190526040812080548a929061070d90849061082e565b9091555060019b9a5050505050505050505050565b80356001600160a01b038116811461032757600080fd5b6000806040838503121561074c57600080fd5b61075583610722565b946020939093013593505050565b60006020828403121561077557600080fd5b5035919050565b60006020828403121561078e57600080fd5b61079782610722565b9392505050565b600080600080600080600080610100898b0312156107bb57600080fd5b6107c489610722565b97506107d260208a01610722565b96506040890135955060608901359450608089013560ff811681146107f657600080fd5b979a969950949793969560a0850135955060c08501359460e001359350915050565b634e487b7160e01b600052601160045260246000fd5b808201808211156101d9576101d9610818565b60006020828403121561085357600080fd5b8151801515811461079757600080fd5b818103818111156101d9576101d9610818565b60006020828403121561088857600080fd5b505191905056fea2646970667358221220575d1c30733f0a10fc6be4dad566d047732ae633125d9ac9bc2e46501a6500dd64736f6c634300081c0033","linkReferences":{}},"methodIdentifiers":{"deposit(uint256)":"b6b55f25","deposited(address)":"cb13cddb","owner()":"8da5cb5b","permitDeposit(address,address,uint256,uint256,uint8,bytes32,bytes32,uint256)":"f2045700","token()":"fc0c546a","tokensReceived(address,uint256)":"24a756d1","withdraw(uint256)":"2e1a7d4d"},"id":44}