{"abi":[{"type":"constructor","inputs":[{"name":"name","type":"string","internalType":"string"},{"name":"symbol","type":"string","internalType":"string"}],"stateMutability":"nonpayable"},{"type":"function","name":"approve","inputs":[{"name":"to","type":"address","internalType":"address"},{"name":"tokenId","type":"uint256","internalType":"uint256"}],"outputs":[],"stateMutability":"nonpayable"},{"type":"function","name":"balanceOf","inputs":[{"name":"owner","type":"address","internalType":"address"}],"outputs":[{"name":"","type":"uint256","internalType":"uint256"}],"stateMutability":"view"},{"type":"function","name":"createNFT","inputs":[{"name":"tokenURI","type":"string","internalType":"string"}],"outputs":[{"name":"","type":"uint256","internalType":"uint256"}],"stateMutability":"nonpayable"},{"type":"function","name":"getApproved","inputs":[{"name":"tokenId","type":"uint256","internalType":"uint256"}],"outputs":[{"name":"","type":"address","internalType":"address"}],"stateMutability":"view"},{"type":"function","name":"isApprovedForAll","inputs":[{"name":"owner","type":"address","internalType":"address"},{"name":"operator","type":"address","internalType":"address"}],"outputs":[{"name":"","type":"bool","internalType":"bool"}],"stateMutability":"view"},{"type":"function","name":"name","inputs":[],"outputs":[{"name":"","type":"string","internalType":"string"}],"stateMutability":"view"},{"type":"function","name":"owner","inputs":[],"outputs":[{"name":"","type":"address","internalType":"address"}],"stateMutability":"view"},{"type":"function","name":"ownerOf","inputs":[{"name":"tokenId","type":"uint256","internalType":"uint256"}],"outputs":[{"name":"","type":"address","internalType":"address"}],"stateMutability":"view"},{"type":"function","name":"renounceOwnership","inputs":[],"outputs":[],"stateMutability":"nonpayable"},{"type":"function","name":"safeTransferFrom","inputs":[{"name":"from","type":"address","internalType":"address"},{"name":"to","type":"address","internalType":"address"},{"name":"tokenId","type":"uint256","internalType":"uint256"}],"outputs":[],"stateMutability":"nonpayable"},{"type":"function","name":"safeTransferFrom","inputs":[{"name":"from","type":"address","internalType":"address"},{"name":"to","type":"address","internalType":"address"},{"name":"tokenId","type":"uint256","internalType":"uint256"},{"name":"data","type":"bytes","internalType":"bytes"}],"outputs":[],"stateMutability":"nonpayable"},{"type":"function","name":"setApprovalForAll","inputs":[{"name":"operator","type":"address","internalType":"address"},{"name":"approved","type":"bool","internalType":"bool"}],"outputs":[],"stateMutability":"nonpayable"},{"type":"function","name":"supportsInterface","inputs":[{"name":"interfaceId","type":"bytes4","internalType":"bytes4"}],"outputs":[{"name":"","type":"bool","internalType":"bool"}],"stateMutability":"view"},{"type":"function","name":"symbol","inputs":[],"outputs":[{"name":"","type":"string","internalType":"string"}],"stateMutability":"view"},{"type":"function","name":"tokenCounter","inputs":[],"outputs":[{"name":"","type":"uint256","internalType":"uint256"}],"stateMutability":"view"},{"type":"function","name":"tokenURI","inputs":[{"name":"tokenId","type":"uint256","internalType":"uint256"}],"outputs":[{"name":"","type":"string","internalType":"string"}],"stateMutability":"view"},{"type":"function","name":"transferFrom","inputs":[{"name":"from","type":"address","internalType":"address"},{"name":"to","type":"address","internalType":"address"},{"name":"tokenId","type":"uint256","internalType":"uint256"}],"outputs":[],"stateMutability":"nonpayable"},{"type":"function","name":"transferOwnership","inputs":[{"name":"newOwner","type":"address","internalType":"address"}],"outputs":[],"stateMutability":"nonpayable"},{"type":"event","name":"Approval","inputs":[{"name":"owner","type":"address","indexed":true,"internalType":"address"},{"name":"approved","type":"address","indexed":true,"internalType":"address"},{"name":"tokenId","type":"uint256","indexed":true,"internalType":"uint256"}],"anonymous":false},{"type":"event","name":"ApprovalForAll","inputs":[{"name":"owner","type":"address","indexed":true,"internalType":"address"},{"name":"operator","type":"address","indexed":true,"internalType":"address"},{"name":"approved","type":"bool","indexed":false,"internalType":"bool"}],"anonymous":false},{"type":"event","name":"BatchMetadataUpdate","inputs":[{"name":"_fromTokenId","type":"uint256","indexed":false,"internalType":"uint256"},{"name":"_toTokenId","type":"uint256","indexed":false,"internalType":"uint256"}],"anonymous":false},{"type":"event","name":"MetadataUpdate","inputs":[{"name":"_tokenId","type":"uint256","indexed":false,"internalType":"uint256"}],"anonymous":false},{"type":"event","name":"OwnershipTransferred","inputs":[{"name":"previousOwner","type":"address","indexed":true,"internalType":"address"},{"name":"newOwner","type":"address","indexed":true,"internalType":"address"}],"anonymous":false},{"type":"event","name":"Transfer","inputs":[{"name":"from","type":"address","indexed":true,"internalType":"address"},{"name":"to","type":"address","indexed":true,"internalType":"address"},{"name":"tokenId","type":"uint256","indexed":true,"internalType":"uint256"}],"anonymous":false},{"type":"error","name":"ERC721IncorrectOwner","inputs":[{"name":"sender","type":"address","internalType":"address"},{"name":"tokenId","type":"uint256","internalType":"uint256"},{"name":"owner","type":"address","internalType":"address"}]},{"type":"error","name":"ERC721InsufficientApproval","inputs":[{"name":"operator","type":"address","internalType":"address"},{"name":"tokenId","type":"uint256","internalType":"uint256"}]},{"type":"error","name":"ERC721InvalidApprover","inputs":[{"name":"approver","type":"address","internalType":"address"}]},{"type":"error","name":"ERC721InvalidOperator","inputs":[{"name":"operator","type":"address","internalType":"address"}]},{"type":"error","name":"ERC721InvalidOwner","inputs":[{"name":"owner","type":"address","internalType":"address"}]},{"type":"error","name":"ERC721InvalidReceiver","inputs":[{"name":"receiver","type":"address","internalType":"address"}]},{"type":"error","name":"ERC721InvalidSender","inputs":[{"name":"sender","type":"address","internalType":"address"}]},{"type":"error","name":"ERC721NonexistentToken","inputs":[{"name":"tokenId","type":"uint256","internalType":"uint256"}]},{"type":"error","name":"OwnableInvalidOwner","inputs":[{"name":"owner","type":"address","internalType":"address"}]},{"type":"error","name":"OwnableUnauthorizedAccount","inputs":[{"name":"account","type":"address","internalType":"address"}]}],"bytecode":{"object":"0x608060405234801561001057600080fd5b5060405161178238038061178283398101604081905261002f9161019d565b338282600061003e838261028f565b50600161004b828261028f565b5050506001600160a01b03811661007c57604051631e4fbdf760e01b81526000600482015260240160405180910390fd5b61008581610092565b505060006008555061034d565b600780546001600160a01b038381166001600160a01b0319831681179093556040519116919082907f8be0079c531659141344cd1fd0a4f28419497f9722a3daafe3b4186f6b6457e090600090a35050565b634e487b7160e01b600052604160045260246000fd5b600082601f83011261010b57600080fd5b81516001600160401b03811115610124576101246100e4565b604051601f8201601f19908116603f011681016001600160401b0381118282101715610152576101526100e4565b60405281815283820160200185101561016a57600080fd5b60005b828110156101895760208186018101518383018201520161016d565b506000918101602001919091529392505050565b600080604083850312156101b057600080fd5b82516001600160401b038111156101c657600080fd5b6101d2858286016100fa565b602085015190935090506001600160401b038111156101f057600080fd5b6101fc858286016100fa565b9150509250929050565b600181811c9082168061021a57607f821691505b60208210810361023a57634e487b7160e01b600052602260045260246000fd5b50919050565b601f82111561028a57806000526020600020601f840160051c810160208510156102675750805b601f840160051c820191505b818110156102875760008155600101610273565b50505b505050565b81516001600160401b038111156102a8576102a86100e4565b6102bc816102b68454610206565b84610240565b6020601f8211600181146102f057600083156102d85750848201515b600019600385901b1c1916600184901b178455610287565b600084815260208120601f198516915b828110156103205787850151825560209485019460019092019101610300565b508482101561033e5786840151600019600387901b60f8161c191681555b50505050600190811b01905550565b6114268061035c6000396000f3fe608060405234801561001057600080fd5b50600436106101165760003560e01c80638da5cb5b116100a2578063c87b56dd11610071578063c87b56dd14610239578063d082e3811461024c578063da2ed03e14610255578063e985e9c514610268578063f2fde38b1461027b57600080fd5b80638da5cb5b146101fa57806395d89b411461020b578063a22cb46514610213578063b88d4fde1461022657600080fd5b806323b872dd116100e957806323b872dd1461019857806342842e0e146101ab5780636352211e146101be57806370a08231146101d1578063715018a6146101f257600080fd5b806301ffc9a71461011b57806306fdde0314610143578063081812fc14610158578063095ea7b314610183575b600080fd5b61012e610129366004610f0a565b61028e565b60405190151581526020015b60405180910390f35b61014b6102b9565b60405161013a9190610f77565b61016b610166366004610f8a565b61034b565b6040516001600160a01b03909116815260200161013a565b610196610191366004610fba565b610374565b005b6101966101a6366004610fe4565b610383565b6101966101b9366004610fe4565b610413565b61016b6101cc366004610f8a565b610433565b6101e46101df366004611021565b61043e565b60405190815260200161013a565b610196610486565b6007546001600160a01b031661016b565b61014b61049a565b61019661022136600461103c565b6104a9565b610196610234366004611108565b6104b4565b61014b610247366004610f8a565b6104cc565b6101e460085481565b6101e4610263366004611184565b6105dd565b61012e6102763660046111cd565b61061c565b610196610289366004611021565b61064a565b60006001600160e01b03198216632483248360e11b14806102b357506102b382610688565b92915050565b6060600080546102c890611200565b80601f01602080910402602001604051908101604052809291908181526020018280546102f490611200565b80156103415780601f1061031657610100808354040283529160200191610341565b820191906000526020600020905b81548152906001019060200180831161032457829003601f168201915b5050505050905090565b6000610356826106d8565b506000828152600460205260409020546001600160a01b03166102b3565b61037f828233610711565b5050565b6001600160a01b0382166103b257604051633250574960e11b8152600060048201526024015b60405180910390fd5b60006103bf83833361071e565b9050836001600160a01b0316816001600160a01b03161461040d576040516364283d7b60e01b81526001600160a01b03808616600483015260248201849052821660448201526064016103a9565b50505050565b61042e838383604051806020016040528060008152506104b4565b505050565b60006102b3826106d8565b60006001600160a01b03821661046a576040516322718ad960e21b8152600060048201526024016103a9565b506001600160a01b031660009081526003602052604090205490565b61048e610817565b6104986000610844565b565b6060600180546102c890611200565b61037f338383610896565b6104bf848484610383565b61040d3385858585610935565b60606104d7826106d8565b50600082815260066020526040812080546104f190611200565b80601f016020809104026020016040519081016040528092919081815260200182805461051d90611200565b801561056a5780601f1061053f5761010080835404028352916020019161056a565b820191906000526020600020905b81548152906001019060200180831161054d57829003601f168201915b50505050509050600061058860408051602081019091526000815290565b9050805160000361059a575092915050565b8151156105cc5780826040516020016105b492919061123a565b60405160208183030381529060405292505050919050565b6105d584610a60565b949350505050565b60006105e7610817565b6008546105f43382610ad5565b6105fe8184610aef565b6008805490600061060e83611269565b90915550909150505b919050565b6001600160a01b03918216600090815260056020908152604080832093909416825291909152205460ff1690565b610652610817565b6001600160a01b03811661067c57604051631e4fbdf760e01b8152600060048201526024016103a9565b61068581610844565b50565b60006001600160e01b031982166380ac58cd60e01b14806106b957506001600160e01b03198216635b5e139f60e01b145b806102b357506301ffc9a760e01b6001600160e01b03198316146102b3565b6000818152600260205260408120546001600160a01b0316806102b357604051637e27328960e01b8152600481018490526024016103a9565b61042e8383836001610b3f565b6000828152600260205260408120546001600160a01b039081169083161561074b5761074b818486610c45565b6001600160a01b0381161561078957610768600085600080610b3f565b6001600160a01b038116600090815260036020526040902080546000190190555b6001600160a01b038516156107b8576001600160a01b0385166000908152600360205260409020805460010190555b60008481526002602052604080822080546001600160a01b0319166001600160a01b0389811691821790925591518793918516917fddf252ad1be2c89b69c2b068fc378daa952ba7f163c4a11628f55a4df523b3ef91a4949350505050565b6007546001600160a01b031633146104985760405163118cdaa760e01b81523360048201526024016103a9565b600780546001600160a01b038381166001600160a01b0319831681179093556040519116919082907f8be0079c531659141344cd1fd0a4f28419497f9722a3daafe3b4186f6b6457e090600090a35050565b6001600160a01b0382166108c857604051630b61174360e31b81526001600160a01b03831660048201526024016103a9565b6001600160a01b03838116600081815260056020908152604080832094871680845294825291829020805460ff191686151590811790915591519182527f17307eab39ab6107e8899845ad3d59bd9653f200f220920489ca2b5937696c31910160405180910390a3505050565b6001600160a01b0383163b15610a5957604051630a85bd0160e11b81526001600160a01b0384169063150b7a0290610977908890889087908790600401611290565b6020604051808303816000875af19250505080156109b2575060408051601f3d908101601f191682019092526109af918101906112cd565b60015b610a1b573d8080156109e0576040519150601f19603f3d011682016040523d82523d6000602084013e6109e5565b606091505b508051600003610a1357604051633250574960e11b81526001600160a01b03851660048201526024016103a9565b805181602001fd5b6001600160e01b03198116630a85bd0160e11b14610a5757604051633250574960e11b81526001600160a01b03851660048201526024016103a9565b505b5050505050565b6060610a6b826106d8565b506000610a8360408051602081019091526000815290565b90506000815111610aa35760405180602001604052806000815250610ace565b80610aad84610ca9565b604051602001610abe92919061123a565b6040516020818303038152906040525b9392505050565b61037f828260405180602001604052806000815250610d3c565b6000828152600660205260409020610b078282611331565b506040518281527ff8e1a15aba9398e019f0b49df1a4fde98ee17ae345cb5f6b5e2c27f5033e8ce79060200160405180910390a15050565b8080610b5357506001600160a01b03821615155b15610c15576000610b63846106d8565b90506001600160a01b03831615801590610b8f5750826001600160a01b0316816001600160a01b031614155b8015610ba25750610ba0818461061c565b155b15610bcb5760405163a9fbf51f60e01b81526001600160a01b03841660048201526024016103a9565b8115610c135783856001600160a01b0316826001600160a01b03167f8c5be1e5ebec7d5bd14f71427d1e84f3dd0314c0f7b2291e5b200ac8c7c3b92560405160405180910390a45b505b5050600090815260046020526040902080546001600160a01b0319166001600160a01b0392909216919091179055565b610c50838383610d54565b61042e576001600160a01b038316610c7e57604051637e27328960e01b8152600481018290526024016103a9565b60405163177e802f60e01b81526001600160a01b0383166004820152602481018290526044016103a9565b60606000610cb683610db7565b600101905060008167ffffffffffffffff811115610cd657610cd6611078565b6040519080825280601f01601f191660200182016040528015610d00576020820181803683370190505b5090508181016020015b600019016f181899199a1a9b1b9c1cb0b131b232b360811b600a86061a8153600a8504945084610d0a57509392505050565b610d468383610e8f565b61042e336000858585610935565b60006001600160a01b038316158015906105d55750826001600160a01b0316846001600160a01b03161480610d8e5750610d8e848461061c565b806105d55750506000908152600460205260409020546001600160a01b03908116911614919050565b60008072184f03e93ff9f4daa797ed6e38ed64bf6a1f0160401b8310610df65772184f03e93ff9f4daa797ed6e38ed64bf6a1f0160401b830492506040015b6d04ee2d6d415b85acef81000000008310610e22576d04ee2d6d415b85acef8100000000830492506020015b662386f26fc100008310610e4057662386f26fc10000830492506010015b6305f5e1008310610e58576305f5e100830492506008015b6127108310610e6c57612710830492506004015b60648310610e7e576064830492506002015b600a83106102b35760010192915050565b6001600160a01b038216610eb957604051633250574960e11b8152600060048201526024016103a9565b6000610ec78383600061071e565b90506001600160a01b0381161561042e576040516339e3563760e11b8152600060048201526024016103a9565b6001600160e01b03198116811461068557600080fd5b600060208284031215610f1c57600080fd5b8135610ace81610ef4565b60005b83811015610f42578181015183820152602001610f2a565b50506000910152565b60008151808452610f63816020860160208601610f27565b601f01601f19169290920160200192915050565b602081526000610ace6020830184610f4b565b600060208284031215610f9c57600080fd5b5035919050565b80356001600160a01b038116811461061757600080fd5b60008060408385031215610fcd57600080fd5b610fd683610fa3565b946020939093013593505050565b600080600060608486031215610ff957600080fd5b61100284610fa3565b925061101060208501610fa3565b929592945050506040919091013590565b60006020828403121561103357600080fd5b610ace82610fa3565b6000806040838503121561104f57600080fd5b61105883610fa3565b91506020830135801515811461106d57600080fd5b809150509250929050565b634e487b7160e01b600052604160045260246000fd5b60008067ffffffffffffffff8411156110a9576110a9611078565b50604051601f19601f85018116603f0116810181811067ffffffffffffffff821117156110d8576110d8611078565b6040528381529050808284018510156110f057600080fd5b83836020830137600060208583010152509392505050565b6000806000806080858703121561111e57600080fd5b61112785610fa3565b935061113560208601610fa3565b925060408501359150606085013567ffffffffffffffff81111561115857600080fd5b8501601f8101871361116957600080fd5b6111788782356020840161108e565b91505092959194509250565b60006020828403121561119657600080fd5b813567ffffffffffffffff8111156111ad57600080fd5b8201601f810184136111be57600080fd5b6105d58482356020840161108e565b600080604083850312156111e057600080fd5b6111e983610fa3565b91506111f760208401610fa3565b90509250929050565b600181811c9082168061121457607f821691505b60208210810361123457634e487b7160e01b600052602260045260246000fd5b50919050565b6000835161124c818460208801610f27565b835190830190611260818360208801610f27565b01949350505050565b60006001820161128957634e487b7160e01b600052601160045260246000fd5b5060010190565b6001600160a01b03858116825284166020820152604081018390526080606082018190526000906112c390830184610f4b565b9695505050505050565b6000602082840312156112df57600080fd5b8151610ace81610ef4565b601f82111561042e57806000526020600020601f840160051c810160208510156113115750805b601f840160051c820191505b81811015610a59576000815560010161131d565b815167ffffffffffffffff81111561134b5761134b611078565b61135f816113598454611200565b846112ea565b6020601f821160018114611393576000831561137b5750848201515b600019600385901b1c1916600184901b178455610a59565b600084815260208120601f198516915b828110156113c357878501518255602094850194600190920191016113a3565b50848210156113e15786840151600019600387901b60f8161c191681555b50505050600190811b0190555056fea2646970667358221220e7f04740ef81c2970a2af2da523f5dc288070504edbeaafc0abc47ed896c2e3664736f6c634300081c0033","linkReferences":{}},"methodIdentifiers":{"approve(address,uint256)":"095ea7b3","balanceOf(address)":"70a08231","createNFT(string)":"da2ed03e","getApproved(uint256)":"081812fc","isApprovedForAll(address,address)":"e985e9c5","name()":"06fdde03","owner()":"8da5cb5b","ownerOf(uint256)":"6352211e","renounceOwnership()":"715018a6","safeTransferFrom(address,address,uint256)":"42842e0e","safeTransferFrom(address,address,uint256,bytes)":"b88d4fde","setApprovalForAll(address,bool)":"a22cb465","supportsInterface(bytes4)":"01ffc9a7","symbol()":"95d89b41","tokenCounter()":"d082e381","tokenURI(uint256)":"c87b56dd","transferFrom(address,address,uint256)":"23b872dd","transferOwnership(address)":"f2fde38b"},"id":53}