{"abi":[{"type":"constructor","inputs":[{"name":"payTokenAddress","type":"address","internalType":"address"}],"stateMutability":"nonpayable"},{"type":"receive","stateMutability":"payable"},{"type":"function","name":"admin","inputs":[],"outputs":[{"name":"","type":"address","internalType":"address"}],"stateMutability":"view"},{"type":"function","name":"buyNFTByToken","inputs":[{"name":"nftAddress","type":"address","internalType":"address"},{"name":"tokenId","type":"uint256","internalType":"uint256"},{"name":"value","type":"uint256","internalType":"uint256"}],"outputs":[{"name":"","type":"bool","internalType":"bool"}],"stateMutability":"nonpayable"},{"type":"function","name":"buyNFTbyETH","inputs":[{"name":"nftAddress","type":"address","internalType":"address"},{"name":"tokenId","type":"uint256","internalType":"uint256"}],"outputs":[{"name":"","type":"bool","internalType":"bool"}],"stateMutability":"payable"},{"type":"function","name":"buyNonce","inputs":[{"name":"","type":"address","internalType":"address"},{"name":"","type":"uint256","internalType":"uint256"}],"outputs":[{"name":"","type":"uint256","internalType":"uint256"}],"stateMutability":"view"},{"type":"function","name":"eip712Domain","inputs":[],"outputs":[{"name":"fields","type":"bytes1","internalType":"bytes1"},{"name":"name","type":"string","internalType":"string"},{"name":"version","type":"string","internalType":"string"},{"name":"chainId","type":"uint256","internalType":"uint256"},{"name":"verifyingContract","type":"address","internalType":"address"},{"name":"salt","type":"bytes32","internalType":"bytes32"},{"name":"extensions","type":"uint256[]","internalType":"uint256[]"}],"stateMutability":"view"},{"type":"function","name":"list","inputs":[{"name":"nftAddress","type":"address","internalType":"address"},{"name":"tokenId","type":"uint256","internalType":"uint256"},{"name":"priceETH","type":"uint256","internalType":"uint256"}],"outputs":[{"name":"","type":"bool","internalType":"bool"}],"stateMutability":"nonpayable"},{"type":"function","name":"listed","inputs":[{"name":"","type":"address","internalType":"address"},{"name":"","type":"uint256","internalType":"uint256"}],"outputs":[{"name":"","type":"uint256","internalType":"uint256"}],"stateMutability":"view"},{"type":"function","name":"listedOwner","inputs":[{"name":"","type":"address","internalType":"address"},{"name":"","type":"uint256","internalType":"uint256"}],"outputs":[{"name":"","type":"address","internalType":"address"}],"stateMutability":"view"},{"type":"function","name":"onERC721Received","inputs":[{"name":"operator","type":"address","internalType":"address"},{"name":"from","type":"address","internalType":"address"},{"name":"tokenId","type":"uint256","internalType":"uint256"},{"name":"data","type":"bytes","internalType":"bytes"}],"outputs":[{"name":"","type":"bytes4","internalType":"bytes4"}],"stateMutability":"pure"},{"type":"function","name":"payToken","inputs":[],"outputs":[{"name":"","type":"address","internalType":"contract MyToken"}],"stateMutability":"view"},{"type":"function","name":"permitBuy","inputs":[{"name":"owner","type":"address","internalType":"address"},{"name":"NFTAddress","type":"address","internalType":"address"},{"name":"tokenId","type":"uint256","internalType":"uint256"},{"name":"deadline","type":"uint256","internalType":"uint256"},{"name":"v","type":"uint8","internalType":"uint8"},{"name":"r","type":"bytes32","internalType":"bytes32"},{"name":"s","type":"bytes32","internalType":"bytes32"},{"name":"tokenPrice","type":"uint256","internalType":"uint256"}],"outputs":[],"stateMutability":"nonpayable"},{"type":"function","name":"tokensReceived","inputs":[{"name":"buyer","type":"address","internalType":"address"},{"name":"value","type":"uint256","internalType":"uint256"},{"name":"data","type":"bytes","internalType":"bytes"}],"outputs":[{"name":"","type":"bool","internalType":"bool"}],"stateMutability":"nonpayable"},{"type":"event","name":"EIP712DomainChanged","inputs":[],"anonymous":false},{"type":"event","name":"_list","inputs":[{"name":"_from","type":"address","indexed":true,"internalType":"address"},{"name":"_to","type":"address","indexed":true,"internalType":"address"},{"name":"_tokenId","type":"uint256","indexed":false,"internalType":"uint256"}],"anonymous":false},{"type":"event","name":"_transfer","inputs":[{"name":"_from","type":"address","indexed":true,"internalType":"address"},{"name":"_to","type":"address","indexed":true,"internalType":"address"},{"name":"_tokenId","type":"uint256","indexed":false,"internalType":"uint256"}],"anonymous":false},{"type":"error","name":"ECDSAInvalidSignature","inputs":[]},{"type":"error","name":"ECDSAInvalidSignatureLength","inputs":[{"name":"length","type":"uint256","internalType":"uint256"}]},{"type":"error","name":"ECDSAInvalidSignatureS","inputs":[{"name":"s","type":"bytes32","internalType":"bytes32"}]},{"type":"error","name":"InvalidShortString","inputs":[]},{"type":"error","name":"StringTooLong","inputs":[{"name":"str","type":"string","internalType":"string"}]}],"bytecode":{"object":"0x61016060405234801561001157600080fd5b50604051611db4380380611db4833981016040819052610030916101c6565b604080518082018252600981526813919513585c9ad95d60ba1b602080830191909152825180840190935260018352603160f81b908301529061007482600061014c565b6101205261008381600161014c565b61014052815160208084019190912060e052815190820120610100524660a05261011060e05161010051604080517f8b73c3c69bb8fe3d512ecc4cf759cc79239f7b179b0ffacaa9a75d522b39400f60208201529081019290925260608201524660808201523060a082015260009060c00160405160208183030381529060405280519060200120905090565b60805250503060c05260028054336001600160a01b031991821617909155600380549091166001600160a01b03929092169190911790556103c5565b6000602083511015610168576101618361017f565b9050610179565b816101738482610295565b5060ff90505b92915050565b600080829050601f815111156101b3578260405163305a27a960e01b81526004016101aa9190610353565b60405180910390fd5b80516101be826103a1565b179392505050565b6000602082840312156101d857600080fd5b81516001600160a01b03811681146101ef57600080fd5b9392505050565b634e487b7160e01b600052604160045260246000fd5b600181811c9082168061022057607f821691505b60208210810361024057634e487b7160e01b600052602260045260246000fd5b50919050565b601f82111561029057806000526020600020601f840160051c8101602085101561026d5750805b601f840160051c820191505b8181101561028d5760008155600101610279565b50505b505050565b81516001600160401b038111156102ae576102ae6101f6565b6102c2816102bc845461020c565b84610246565b6020601f8211600181146102f657600083156102de5750848201515b600019600385901b1c1916600184901b17845561028d565b600084815260208120601f198516915b828110156103265787850151825560209485019460019092019101610306565b50848210156103445786840151600019600387901b60f8161c191681555b50505050600190811b01905550565b602081526000825180602084015260005b818110156103815760208186018101516040868401015201610364565b506000604082850101526040601f19601f83011684010191505092915050565b805160208083015191908110156102405760001960209190910360031b1b16919050565b60805160a05160c05160e0516101005161012051610140516119a4610410600039600061110d015260006110db015260005050600050506000505060005050600050506119a46000f3fe6080604052600436106100ab5760003560e01c806396336b301161006457806396336b301461021a578063cae8b14b1461023a578063d031426314610272578063dda342bb14610292578063f851a440146102b2578063fcf2baf0146102d257600080fd5b8063150b7a02146100b75780631cd914371461010157806338901e5d14610123578063749a4978146101695780637d315035146101c257806384b0196e146101f257600080fd5b366100b257005b600080fd5b3480156100c357600080fd5b506100e36100d2366004611458565b630a85bd0160e11b95945050505050565b6040516001600160e01b031990911681526020015b60405180910390f35b34801561010d57600080fd5b5061012161011c3660046114da565b6102e5565b005b34801561012f57600080fd5b5061015b61013e366004611552565b600460209081526000928352604080842090915290825290205481565b6040519081526020016100f8565b34801561017557600080fd5b506101aa610184366004611552565b60056020908152600092835260408084209091529082529020546001600160a01b031681565b6040516001600160a01b0390911681526020016100f8565b3480156101ce57600080fd5b506101e26101dd36600461157e565b61043d565b60405190151581526020016100f8565b3480156101fe57600080fd5b5061020761073e565b6040516100f897969594939291906115f9565b34801561022657600080fd5b506003546101aa906001600160a01b031681565b34801561024657600080fd5b5061015b610255366004611552565b600660209081526000928352604080842090915290825290205481565b34801561027e57600080fd5b506101e261028d366004611691565b610784565b34801561029e57600080fd5b506101e26102ad36600461157e565b610ad6565b3480156102be57600080fd5b506002546101aa906001600160a01b031681565b6101e26102e0366004611552565b610e3c565b7f0fb658280bb8e7e81a4464983e2f9187760325ee478fc5f084dfd4a65b41e5df42861161035a5760405162461bcd60e51b815260206004820152601b60248201527f457863656564696e67207468652065787065637465642074696d65000000000060448201526064015b60405180910390fd5b6040805160208082018490526001600160a01b038c8116838501523360608401528b16608083015260a082018a905260c08083018a90528351808403909101815260e0909201909252805191012060006103b68288888861105d565b90508a6001600160a01b0316816001600160a01b0316146104245760405162461bcd60e51b815260206004820152602260248201527f496e76616c6964207369676e61747572653a204e6f742077686974656c697374604482015261195960f21b6064820152608401610351565b61042f8a8a8661043d565b505050505050505050505050565b60006104616040518060600160405280602f8152602001611940602f91393361108b565b6003546040805163313ce56760e01b815290516000926001600160a01b03169163313ce5679160048083019260209291908290030181865afa1580156104ab573d6000803e3d6000fd5b505050506040513d601f19601f820116820180604052508101906104cf91906116ed565b905060006104e160ff8316600a61180e565b6001600160a01b038716600090815260046020908152604080832089845290915290205461050f919061181a565b9050600061052160ff8416600a61180e565b61052b908661181a565b9050818110156105725760405162461bcd60e51b8152602060048201526012602482015271496e73756666696369656e742076616c756560701b6044820152606401610351565b6001600160a01b0387811660009081526005602090815260408083208a84529091528082205460035491516323b872dd60e01b815233600482015290841660248201819052604482018790529391909116906323b872dd906064016020604051808303816000875af11580156105ec573d6000803e3d6000fd5b505050506040513d601f19601f820116820180604052508101906106109190611831565b9050806106525760405162461bcd60e51b815260206004820152601060248201526f1c185e481d1bdad95b8819985a5b195960821b6044820152606401610351565b604051635c46a7ef60e11b81526001600160a01b038a169063b88d4fde9061068290309033908d90600401611853565b600060405180830381600087803b15801561069c57600080fd5b505af11580156106b0573d6000803e3d6000fd5b505050506001600160a01b03891660008181526004602090815260408083208c84528252808320839055928252600581528282208b835281529082902080546001600160a01b03191690559051898152339130917f30e0789ed23094f42b5810cbdf4e48a0478aec0b37810e24e912443dd0032b3c910160405180910390a350600198975050505050505050565b6000606080600080600060606107526110d4565b61075a611106565b60408051600080825260208201909252600f60f81b9b939a50919850469750309650945092509050565b6000808061079484860186611552565b60035491935091506001600160a01b031633146107ec5760405162461bcd60e51b815260206004820152601660248201527534b73b30b632103830bcaa37b5b2b71039b2b73232b960511b6044820152606401610351565b6003546040805163313ce56760e01b815290516000926001600160a01b03169163313ce5679160048083019260209291908290030181865afa158015610836573d6000803e3d6000fd5b505050506040513d601f19601f8201168201806040525081019061085a91906116ed565b9050600061086c60ff8316600a61180e565b6001600160a01b038516600090815260046020908152604080832087845290915290205461089a919061181a565b905060006108ac60ff8416600a61180e565b6108b6908a61181a565b9050818110156108fd5760405162461bcd60e51b8152602060048201526012602482015271496e73756666696369656e742076616c756560701b6044820152606401610351565b6001600160a01b03858116600090815260056020908152604080832088845290915280822054600354915163a9059cbb60e01b8152908416600482018190526024820187905293919091169063a9059cbb906044016020604051808303816000875af1158015610971573d6000803e3d6000fd5b505050506040513d601f19601f820116820180604052508101906109959190611831565b9050806109e45760405162461bcd60e51b815260206004820152601860248201527f7472616e666572206661696c656420746f205f6f776e657200000000000000006044820152606401610351565b866001600160a01b031663b88d4fde308e896040518463ffffffff1660e01b8152600401610a1493929190611853565b600060405180830381600087803b158015610a2e57600080fd5b505af1158015610a42573d6000803e3d6000fd5b505050506001600160a01b0387811660008181526004602090815260408083208b84528252808320839055928252600581528282208a835281529082902080546001600160a01b03191690559051888152918e169130917f30e0789ed23094f42b5810cbdf4e48a0478aec0b37810e24e912443dd0032b3c910160405180910390a35060019b9a5050505050505050505050565b6040516331a9108f60e11b81526004810183905260009081906001600160a01b03861690636352211e90602401602060405180830381865afa158015610b20573d6000803e3d6000fd5b505050506040513d601f19601f82011682018060405250810190610b449190611886565b90506001600160a01b0381163314610b8e5760405162461bcd60e51b815260206004820152600d60248201526c3737ba103a34329037bbb732b960991b6044820152606401610351565b60405163020604bf60e21b81526004810185905260009030906001600160a01b0388169063081812fc90602401602060405180830381865afa158015610bd8573d6000803e3d6000fd5b505050506040513d601f19601f82011682018060405250810190610bfc9190611886565b6001600160a01b03161480610c7a575060405163e985e9c560e01b81523360048201523060248201526001600160a01b0387169063e985e9c590604401602060405180830381865afa158015610c56573d6000803e3d6000fd5b505050506040513d601f19601f82011682018060405250810190610c7a9190611831565b905080610cb85760405162461bcd60e51b815260206004820152600c60248201526b1b9bdd08185c1c1c9bdd995960a21b6044820152606401610351565b6001600160a01b03861660009081526004602090815260408083208884529091529020541580610d0b57506001600160a01b03868116600090815260056020908152604080832089845290915290205416155b610d485760405162461bcd60e51b815260206004820152600e60248201526d185b1c9958591e481b1a5cdd195960921b6044820152606401610351565b604051635c46a7ef60e11b81526001600160a01b0387169063b88d4fde90610d7890339030908a90600401611853565b600060405180830381600087803b158015610d9257600080fd5b505af1158015610da6573d6000803e3d6000fd5b5050506001600160a01b03871660008181526004602090815260408083208a8452825280832089905592825260058152828220898352905281902080546001600160a01b0319163390811790915590513092507f85a095ee7ac2d8416277508bb30e5573d2dab92708aaffcf77848df37fce55a890610e289089815260200190565b60405180910390a350600195945050505050565b6001600160a01b038216600090815260046020908152604080832084845290915281205480610e73670de0b6b3a7640000346118a3565b14610eb65760405162461bcd60e51b8152602060048201526013602482015272125b9cdd59999a58da595b9d08185b5bdd5b9d606a1b6044820152606401610351565b34471015610ec357600080fd5b6001600160a01b038481166000908152600560209081526040808320878452909152808220549051921691829034908381818185875af1925050503d8060008114610f2a576040519150601f19603f3d011682016040523d82523d6000602084013e610f2f565b606091505b5050905080610f725760405162461bcd60e51b815260206004820152600f60248201526e1d1c985b9cd9995c8819985a5b1959608a1b6044820152606401610351565b604051635c46a7ef60e11b81526001600160a01b0387169063b88d4fde90610fa290309033908a90600401611853565b600060405180830381600087803b158015610fbc57600080fd5b505af1158015610fd0573d6000803e3d6000fd5b505050506001600160a01b038616600081815260046020908152604080832089845282528083208390559282526005815282822088835281529082902080546001600160a01b03191690559051868152339130917f30e0789ed23094f42b5810cbdf4e48a0478aec0b37810e24e912443dd0032b3c910160405180910390a3600193505050505b92915050565b60008060008061106f88888888611133565b92509250925061107f8282611202565b50909695505050505050565b6110d082826040516024016110a19291906118c5565b60408051601f198184030181529190526020810180516001600160e01b031663319af33360e01b1790526112bb565b5050565b60606111017f000000000000000000000000000000000000000000000000000000000000000060006112c7565b905090565b60606111017f000000000000000000000000000000000000000000000000000000000000000060016112c7565b600080807f7fffffffffffffffffffffffffffffff5d576e7357a4501ddfe92f46681b20a084111561116e57506000915060039050826111f8565b604080516000808252602082018084528a905260ff891692820192909252606081018790526080810186905260019060a0016020604051602081039080840390855afa1580156111c2573d6000803e3d6000fd5b5050604051601f1901519150506001600160a01b0381166111ee575060009250600191508290506111f8565b9250600091508190505b9450945094915050565b6000826003811115611216576112166118ef565b0361121f575050565b6001826003811115611233576112336118ef565b036112515760405163f645eedf60e01b815260040160405180910390fd5b6002826003811115611265576112656118ef565b036112865760405163fce698f760e01b815260048101829052602401610351565b600382600381111561129a5761129a6118ef565b036110d0576040516335e2f38360e21b815260048101829052602401610351565b6112c481611372565b50565b606060ff83146112e1576112da83611393565b9050611057565b8180546112ed90611905565b80601f016020809104026020016040519081016040528092919081815260200182805461131990611905565b80156113665780601f1061133b57610100808354040283529160200191611366565b820191906000526020600020905b81548152906001019060200180831161134957829003601f168201915b50505050509050611057565b60006a636f6e736f6c652e6c6f679050600080835160208501845afa505050565b606060006113a0836113d2565b604080516020808252818301909252919250600091906020820181803683375050509182525060208101929092525090565b600060ff8216601f81111561105757604051632cd44ac360e21b815260040160405180910390fd5b6001600160a01b03811681146112c457600080fd5b60008083601f84011261142157600080fd5b50813567ffffffffffffffff81111561143957600080fd5b60208301915083602082850101111561145157600080fd5b9250929050565b60008060008060006080868803121561147057600080fd5b853561147b816113fa565b9450602086013561148b816113fa565b935060408601359250606086013567ffffffffffffffff8111156114ae57600080fd5b6114ba8882890161140f565b969995985093965092949392505050565b60ff811681146112c457600080fd5b600080600080600080600080610100898b0312156114f757600080fd5b8835611502816113fa565b97506020890135611512816113fa565b965060408901359550606089013594506080890135611530816114cb565b979a969950949793969560a0850135955060c08501359460e001359350915050565b6000806040838503121561156557600080fd5b8235611570816113fa565b946020939093013593505050565b60008060006060848603121561159357600080fd5b833561159e816113fa565b95602085013595506040909401359392505050565b6000815180845260005b818110156115d9576020818501810151868301820152016115bd565b506000602082860101526020601f19601f83011685010191505092915050565b60ff60f81b8816815260e06020820152600061161860e08301896115b3565b828103604084015261162a81896115b3565b606084018890526001600160a01b038716608085015260a0840186905283810360c08501528451808252602080870193509091019060005b81811015611680578351835260209384019390920191600101611662565b50909b9a5050505050505050505050565b600080600080606085870312156116a757600080fd5b84356116b2816113fa565b935060208501359250604085013567ffffffffffffffff8111156116d557600080fd5b6116e18782880161140f565b95989497509550505050565b6000602082840312156116ff57600080fd5b815161170a816114cb565b9392505050565b634e487b7160e01b600052601160045260246000fd5b6001815b60018411156117625780850481111561174657611746611711565b600184161561175457908102905b60019390931c92800261172b565b935093915050565b60008261177957506001611057565b8161178657506000611057565b816001811461179c57600281146117a6576117c2565b6001915050611057565b60ff8411156117b7576117b7611711565b50506001821b611057565b5060208310610133831016604e8410600b84101617156117e5575081810a611057565b6117f26000198484611727565b806000190482111561180657611806611711565b029392505050565b600061170a838361176a565b808202811582820484141761105757611057611711565b60006020828403121561184357600080fd5b8151801515811461170a57600080fd5b6001600160a01b039384168152919092166020820152604081019190915260806060820181905260009082015260a00190565b60006020828403121561189857600080fd5b815161170a816113fa565b6000826118c057634e487b7160e01b600052601260045260246000fd5b500490565b6040815260006118d860408301856115b3565b905060018060a01b03831660208301529392505050565b634e487b7160e01b600052602160045260246000fd5b600181811c9082168061191957607f821691505b60208210810361193957634e487b7160e01b600052602260045260246000fd5b5091905056fe6275794e46544279546f6b656e284e4654416464726573732c20746f6b656e49642c20746f6b656e5072696365293ba2646970667358221220458f52844531796f9221c2d94443d56760534788889f8e2a56d788d0afeb088564736f6c634300081c0033","linkReferences":{}},"methodIdentifiers":{"admin()":"f851a440","buyNFTByToken(address,uint256,uint256)":"7d315035","buyNFTbyETH(address,uint256)":"fcf2baf0","buyNonce(address,uint256)":"cae8b14b","eip712Domain()":"84b0196e","list(address,uint256,uint256)":"dda342bb","listed(address,uint256)":"38901e5d","listedOwner(address,uint256)":"749a4978","onERC721Received(address,address,uint256,bytes)":"150b7a02","payToken()":"96336b30","permitBuy(address,address,uint256,uint256,uint8,bytes32,bytes32,uint256)":"1cd91437","tokensReceived(address,uint256,bytes)":"d0314263"},"id":47}