{"abi":[{"type":"constructor","inputs":[{"name":"_name","type":"string","internalType":"string"},{"name":"_symbol","type":"string","internalType":"string"},{"name":"to","type":"address","internalType":"address"}],"stateMutability":"nonpayable"},{"type":"function","name":"allowance","inputs":[{"name":"owner","type":"address","internalType":"address"},{"name":"spender","type":"address","internalType":"address"}],"outputs":[{"name":"","type":"uint256","internalType":"uint256"}],"stateMutability":"view"},{"type":"function","name":"approve","inputs":[{"name":"spender","type":"address","internalType":"address"},{"name":"value","type":"uint256","internalType":"uint256"}],"outputs":[{"name":"","type":"bool","internalType":"bool"}],"stateMutability":"nonpayable"},{"type":"function","name":"balanceOf","inputs":[{"name":"account","type":"address","internalType":"address"}],"outputs":[{"name":"","type":"uint256","internalType":"uint256"}],"stateMutability":"view"},{"type":"function","name":"decimals","inputs":[],"outputs":[{"name":"","type":"uint8","internalType":"uint8"}],"stateMutability":"view"},{"type":"function","name":"name","inputs":[],"outputs":[{"name":"","type":"string","internalType":"string"}],"stateMutability":"view"},{"type":"function","name":"nonces","inputs":[{"name":"","type":"address","internalType":"address"}],"outputs":[{"name":"","type":"uint256","internalType":"uint256"}],"stateMutability":"view"},{"type":"function","name":"permit","inputs":[{"name":"owner","type":"address","internalType":"address"},{"name":"spender","type":"address","internalType":"address"},{"name":"value","type":"uint256","internalType":"uint256"},{"name":"deadline","type":"uint256","internalType":"uint256"},{"name":"v","type":"uint8","internalType":"uint8"},{"name":"r","type":"bytes32","internalType":"bytes32"},{"name":"s","type":"bytes32","internalType":"bytes32"}],"outputs":[],"stateMutability":"nonpayable"},{"type":"function","name":"symbol","inputs":[],"outputs":[{"name":"","type":"string","internalType":"string"}],"stateMutability":"view"},{"type":"function","name":"totalSupply","inputs":[],"outputs":[{"name":"","type":"uint256","internalType":"uint256"}],"stateMutability":"view"},{"type":"function","name":"transfer","inputs":[{"name":"to","type":"address","internalType":"address"},{"name":"value","type":"uint256","internalType":"uint256"}],"outputs":[{"name":"","type":"bool","internalType":"bool"}],"stateMutability":"nonpayable"},{"type":"function","name":"transferFrom","inputs":[{"name":"from","type":"address","internalType":"address"},{"name":"to","type":"address","internalType":"address"},{"name":"value","type":"uint256","internalType":"uint256"}],"outputs":[{"name":"","type":"bool","internalType":"bool"}],"stateMutability":"nonpayable"},{"type":"function","name":"transferWithCallback","inputs":[{"name":"recipient","type":"address","internalType":"address"},{"name":"amount","type":"uint256","internalType":"uint256"}],"outputs":[{"name":"","type":"bool","internalType":"bool"}],"stateMutability":"nonpayable"},{"type":"event","name":"Approval","inputs":[{"name":"owner","type":"address","indexed":true,"internalType":"address"},{"name":"spender","type":"address","indexed":true,"internalType":"address"},{"name":"value","type":"uint256","indexed":false,"internalType":"uint256"}],"anonymous":false},{"type":"event","name":"Transfer","inputs":[{"name":"from","type":"address","indexed":true,"internalType":"address"},{"name":"to","type":"address","indexed":true,"internalType":"address"},{"name":"value","type":"uint256","indexed":false,"internalType":"uint256"}],"anonymous":false},{"type":"error","name":"ECDSAInvalidSignature","inputs":[]},{"type":"error","name":"ECDSAInvalidSignatureLength","inputs":[{"name":"length","type":"uint256","internalType":"uint256"}]},{"type":"error","name":"ECDSAInvalidSignatureS","inputs":[{"name":"s","type":"bytes32","internalType":"bytes32"}]},{"type":"error","name":"ERC20InsufficientAllowance","inputs":[{"name":"spender","type":"address","internalType":"address"},{"name":"allowance","type":"uint256","internalType":"uint256"},{"name":"needed","type":"uint256","internalType":"uint256"}]},{"type":"error","name":"ERC20InsufficientBalance","inputs":[{"name":"sender","type":"address","internalType":"address"},{"name":"balance","type":"uint256","internalType":"uint256"},{"name":"needed","type":"uint256","internalType":"uint256"}]},{"type":"error","name":"ERC20InvalidApprover","inputs":[{"name":"approver","type":"address","internalType":"address"}]},{"type":"error","name":"ERC20InvalidReceiver","inputs":[{"name":"receiver","type":"address","internalType":"address"}]},{"type":"error","name":"ERC20InvalidSender","inputs":[{"name":"sender","type":"address","internalType":"address"}]},{"type":"error","name":"ERC20InvalidSpender","inputs":[{"name":"spender","type":"address","internalType":"address"}]}],"bytecode":{"object":"0x608060405234801561001057600080fd5b5060405161102438038061102483398101604081905261002f9161028f565b8282600361003d83826103a3565b50600461004a82826103a3565b50505061006581670de0b6b3a764000061006d60201b60201c565b505050610488565b6001600160a01b03821661009c5760405163ec442f0560e01b8152600060048201526024015b60405180910390fd5b6100a8600083836100ac565b5050565b6001600160a01b0383166100d75780600260008282546100cc9190610461565b909155506101499050565b6001600160a01b0383166000908152602081905260409020548181101561012a5760405163391434e360e21b81526001600160a01b03851660048201526024810182905260448101839052606401610093565b6001600160a01b03841660009081526020819052604090209082900390555b6001600160a01b03821661016557600280548290039055610184565b6001600160a01b03821660009081526020819052604090208054820190555b816001600160a01b0316836001600160a01b03167fddf252ad1be2c89b69c2b068fc378daa952ba7f163c4a11628f55a4df523b3ef836040516101c991815260200190565b60405180910390a3505050565b634e487b7160e01b600052604160045260246000fd5b600082601f8301126101fd57600080fd5b81516001600160401b03811115610216576102166101d6565b604051601f8201601f19908116603f011681016001600160401b0381118282101715610244576102446101d6565b60405281815283820160200185101561025c57600080fd5b60005b8281101561027b5760208186018101518383018201520161025f565b506000918101602001919091529392505050565b6000806000606084860312156102a457600080fd5b83516001600160401b038111156102ba57600080fd5b6102c6868287016101ec565b602086015190945090506001600160401b038111156102e457600080fd5b6102f0868287016101ec565b604086015190935090506001600160a01b038116811461030f57600080fd5b809150509250925092565b600181811c9082168061032e57607f821691505b60208210810361034e57634e487b7160e01b600052602260045260246000fd5b50919050565b601f82111561039e57806000526020600020601f840160051c8101602085101561037b5750805b601f840160051c820191505b8181101561039b5760008155600101610387565b50505b505050565b81516001600160401b038111156103bc576103bc6101d6565b6103d0816103ca845461031a565b84610354565b6020601f82116001811461040457600083156103ec5750848201515b600019600385901b1c1916600184901b17845561039b565b600084815260208120601f198516915b828110156104345787850151825560209485019460019092019101610414565b50848210156104525786840151600019600387901b60f8161c191681555b50505050600190811b01905550565b8082018082111561048257634e487b7160e01b600052601160045260246000fd5b92915050565b610b8d806104976000396000f3fe608060405234801561001057600080fd5b50600436106100b45760003560e01c806370a082311161007157806370a08231146101415780637ecebe001461016a57806395d89b411461018a578063a9059cbb14610192578063d505accf146101a5578063dd62ed3e146101ba57600080fd5b806306fdde03146100b9578063095ea7b3146100d757806318160ddd146100fa5780631a825b751461010c57806323b872dd1461011f578063313ce56714610132575b600080fd5b6100c16101f3565b6040516100ce919061094d565b60405180910390f35b6100ea6100e53660046109b7565b610285565b60405190151581526020016100ce565b6002545b6040519081526020016100ce565b6100ea61011a3660046109b7565b61029f565b6100ea61012d3660046109e1565b610325565b604051601281526020016100ce565b6100fe61014f366004610a1e565b6001600160a01b031660009081526020819052604090205490565b6100fe610178366004610a1e565b60056020526000908152604090205481565b6100c1610349565b6100ea6101a03660046109b7565b610358565b6101b86101b3366004610a40565b610366565b005b6100fe6101c8366004610ab3565b6001600160a01b03918216600090815260016020908152604080832093909416825291909152205490565b60606003805461020290610ae6565b80601f016020809104026020016040519081016040528092919081815260200182805461022e90610ae6565b801561027b5780601f106102505761010080835404028352916020019161027b565b820191906000526020600020905b81548152906001019060200180831161025e57829003601f168201915b5050505050905090565b6000336102938185856104a4565b60019150505b92915050565b60006102ac338484610325565b50823b1561031c576040516329e9a3b960e01b81523360048201526001600160a01b0384166024820181905260448201849052906329e9a3b990606401600060405180830381600087803b15801561030357600080fd5b505af1158015610317573d6000803e3d6000fd5b505050505b50600192915050565b6000336103338582856104b6565b61033e858585610535565b506001949350505050565b60606004805461020290610ae6565b600033610293818585610535565b8342106103ba5760405162461bcd60e51b815260206004820152601b60248201527f457863656564696e67207468652065787065637465642074696d65000000000060448201526064015b60405180910390fd5b604080517f05619a74ecd0240afc3bfb1df2bd1319401220fb577809c3a09bf0ab809ac86160208083018290526001600160a01b038b8116848601528a1660608401526080830189905260a08084018990528451808503909101815260c090930190935281519190920120600061043382878787610594565b9050896001600160a01b0316816001600160a01b03161461048d5760405162461bcd60e51b815260206004820152601460248201527322a921991b189924b73b30b634b229b4b3b732b960611b60448201526064016103b1565b6104988a8a8a6104a4565b50505050505050505050565b6104b183838360016105c2565b505050565b6001600160a01b0383811660009081526001602090815260408083209386168352929052205460001981101561052f578181101561052057604051637dc7a0d960e11b81526001600160a01b038416600482015260248101829052604481018390526064016103b1565b61052f848484840360006105c2565b50505050565b6001600160a01b03831661055f57604051634b637e8f60e11b8152600060048201526024016103b1565b6001600160a01b0382166105895760405163ec442f0560e01b8152600060048201526024016103b1565b6104b1838383610697565b6000806000806105a6888888886107c1565b9250925092506105b68282610890565b50909695505050505050565b6001600160a01b0384166105ec5760405163e602df0560e01b8152600060048201526024016103b1565b6001600160a01b03831661061657604051634a1406b160e11b8152600060048201526024016103b1565b6001600160a01b038085166000908152600160209081526040808320938716835292905220829055801561052f57826001600160a01b0316846001600160a01b03167f8c5be1e5ebec7d5bd14f71427d1e84f3dd0314c0f7b2291e5b200ac8c7c3b9258460405161068991815260200190565b60405180910390a350505050565b6001600160a01b0383166106c25780600260008282546106b79190610b20565b909155506107349050565b6001600160a01b038316600090815260208190526040902054818110156107155760405163391434e360e21b81526001600160a01b038516600482015260248101829052604481018390526064016103b1565b6001600160a01b03841660009081526020819052604090209082900390555b6001600160a01b0382166107505760028054829003905561076f565b6001600160a01b03821660009081526020819052604090208054820190555b816001600160a01b0316836001600160a01b03167fddf252ad1be2c89b69c2b068fc378daa952ba7f163c4a11628f55a4df523b3ef836040516107b491815260200190565b60405180910390a3505050565b600080807f7fffffffffffffffffffffffffffffff5d576e7357a4501ddfe92f46681b20a08411156107fc5750600091506003905082610886565b604080516000808252602082018084528a905260ff891692820192909252606081018790526080810186905260019060a0016020604051602081039080840390855afa158015610850573d6000803e3d6000fd5b5050604051601f1901519150506001600160a01b03811661087c57506000925060019150829050610886565b9250600091508190505b9450945094915050565b60008260038111156108a4576108a4610b41565b036108ad575050565b60018260038111156108c1576108c1610b41565b036108df5760405163f645eedf60e01b815260040160405180910390fd5b60028260038111156108f3576108f3610b41565b036109145760405163fce698f760e01b8152600481018290526024016103b1565b600382600381111561092857610928610b41565b03610949576040516335e2f38360e21b8152600481018290526024016103b1565b5050565b602081526000825180602084015260005b8181101561097b576020818601810151604086840101520161095e565b506000604082850101526040601f19601f83011684010191505092915050565b80356001600160a01b03811681146109b257600080fd5b919050565b600080604083850312156109ca57600080fd5b6109d38361099b565b946020939093013593505050565b6000806000606084860312156109f657600080fd5b6109ff8461099b565b9250610a0d6020850161099b565b929592945050506040919091013590565b600060208284031215610a3057600080fd5b610a398261099b565b9392505050565b600080600080600080600060e0888a031215610a5b57600080fd5b610a648861099b565b9650610a726020890161099b565b95506040880135945060608801359350608088013560ff81168114610a9657600080fd5b9699959850939692959460a0840135945060c09093013592915050565b60008060408385031215610ac657600080fd5b610acf8361099b565b9150610add6020840161099b565b90509250929050565b600181811c90821680610afa57607f821691505b602082108103610b1a57634e487b7160e01b600052602260045260246000fd5b50919050565b8082018082111561029957634e487b7160e01b600052601160045260246000fd5b634e487b7160e01b600052602160045260246000fdfea26469706673582212208b3c915f001dc284d2fe36f302656663ccc564ab06e205649f5bab7fa18fd97664736f6c634300081c0033","linkReferences":{}},"methodIdentifiers":{"allowance(address,address)":"dd62ed3e","approve(address,uint256)":"095ea7b3","balanceOf(address)":"70a08231","decimals()":"313ce567","name()":"06fdde03","nonces(address)":"7ecebe00","permit(address,address,uint256,uint256,uint8,bytes32,bytes32)":"d505accf","symbol()":"95d89b41","totalSupply()":"18160ddd","transfer(address,uint256)":"a9059cbb","transferFrom(address,address,uint256)":"23b872dd","transferWithCallback(address,uint256)":"1a825b75"},"id":52}