{"abi":[{"type":"constructor","inputs":[{"name":"_tokenAddress","type":"address","internalType":"address"}],"stateMutability":"nonpayable"},{"type":"function","name":"deposit","inputs":[{"name":"amount","type":"uint256","internalType":"uint256"}],"outputs":[{"name":"","type":"bool","internalType":"bool"}],"stateMutability":"nonpayable"},{"type":"function","name":"deposited","inputs":[{"name":"","type":"address","internalType":"address"}],"outputs":[{"name":"","type":"uint256","internalType":"uint256"}],"stateMutability":"view"},{"type":"function","name":"owner","inputs":[],"outputs":[{"name":"","type":"address","internalType":"address"}],"stateMutability":"view"},{"type":"function","name":"permitDeposit","inputs":[{"name":"_owner","type":"address","internalType":"address"},{"name":"_value","type":"uint256","internalType":"uint256"},{"name":"_deadline","type":"uint256","internalType":"uint256"},{"name":"v","type":"uint8","internalType":"uint8"},{"name":"r","type":"bytes32","internalType":"bytes32"},{"name":"s","type":"bytes32","internalType":"bytes32"},{"name":"amountDeposit","type":"uint256","internalType":"uint256"}],"outputs":[{"name":"","type":"bool","internalType":"bool"}],"stateMutability":"nonpayable"},{"type":"function","name":"token","inputs":[],"outputs":[{"name":"","type":"address","internalType":"contract MyTokenPermit"}],"stateMutability":"view"},{"type":"function","name":"tokensReceived","inputs":[{"name":"from","type":"address","internalType":"address"},{"name":"_value","type":"uint256","internalType":"uint256"}],"outputs":[{"name":"","type":"bool","internalType":"bool"}],"stateMutability":"nonpayable"},{"type":"function","name":"withdraw","inputs":[{"name":"amount","type":"uint256","internalType":"uint256"}],"outputs":[{"name":"","type":"bool","internalType":"bool"}],"stateMutability":"nonpayable"}],"bytecode":{"object":"0x6080604052348015600f57600080fd5b50604051610a46380380610a46833981016040819052602c91605e565b60018054336001600160a01b031991821617909155600280549091166001600160a01b0392909216919091179055608c565b600060208284031215606f57600080fd5b81516001600160a01b0381168114608557600080fd5b9392505050565b6109ab8061009b6000396000f3fe608060405234801561001057600080fd5b506004361061007d5760003560e01c80639bcb75ab1161005b5780639bcb75ab146100e8578063b6b55f25146100fb578063cb13cddb1461010e578063fc0c546a1461013c57600080fd5b806324a756d1146100825780632e1a7d4d146100aa5780638da5cb5b146100bd575b600080fd5b6100956100903660046107d0565b61014f565b60405190151581526020015b60405180910390f35b6100956100b83660046107fa565b6101df565b6001546100d0906001600160a01b031681565b6040516001600160a01b0390911681526020016100a1565b6100956100f6366004610813565b61032c565b6100956101093660046107fa565b610598565b61012e61011c36600461087c565b60006020819052908152604090205481565b6040519081526020016100a1565b6002546100d0906001600160a01b031681565b6002546000906001600160a01b031633146101a75760405162461bcd60e51b815260206004820152601360248201527234b73b30b632103a37b5b2b71039b2b73232b960691b60448201526064015b60405180910390fd5b6001600160a01b038316600090815260208190526040812080548492906101cf9084906108b4565b9091555060019150505b92915050565b6001546000906001600160a01b031633146102295760405162461bcd60e51b815260206004820152600a60248201526937b7363c9037bbb732b960b11b604482015260640161019e565b336000908152602081905260409020548211156102885760405162461bcd60e51b815260206004820152601f60248201527f776974686472617720616d6f756e7420657863656564732062616c616e636500604482015260640161019e565b60025460405163a9059cbb60e01b8152336004820152602481018490526001600160a01b039091169063a9059cbb906044016020604051808303816000875af11580156102d9573d6000803e3d6000fd5b505050506040513d601f19601f820116820180604052508101906102fd91906108c7565b50336000908152602081905260408120805484929061031d9084906108e9565b9091555060019150505b919050565b600061035c6040518060400160405280600c81526020016b3130b735a0a2222922a9a99d60a11b81525030610743565b60025460405163d505accf60e01b81526001600160a01b038a81166004830152306024830152604482018a90526064820189905260ff8816608483015260a4820187905260c482018690529091169063d505accf9060e401600060405180830381600087803b1580156103ce57600080fd5b505af11580156103e2573d6000803e3d6000fd5b5050600254604051636eb1769f60e11b81526001600160a01b038c81166004830152306024830152869450909116915063dd62ed3e90604401602060405180830381865afa158015610438573d6000803e3d6000fd5b505050506040513d601f19601f8201168201806040525081019061045c91906108fc565b10156104985760405162461bcd60e51b815260206004820152600b60248201526a1a5b9cdd599a58da595b9d60aa1b604482015260640161019e565b6002546040516323b872dd60e01b81526001600160a01b038a81166004830152306024830152604482018a905260009216906323b872dd906064016020604051808303816000875af11580156104f2573d6000803e3d6000fd5b505050506040513d601f19601f8201168201806040525081019061051691906108c7565b9050806105655760405162461bcd60e51b815260206004820152601a60248201527f737563636573735472616e7366657246726f6d206661696c6564000000000000604482015260640161019e565b33600090815260208190526040812080548a92906105849084906108b4565b9091555060019a9950505050505050505050565b6002546040516370a0823160e01b815233600482015260009183916001600160a01b03909116906370a0823190602401602060405180830381865afa1580156105e5573d6000803e3d6000fd5b505050506040513d601f19601f8201168201806040525081019061060991906108fc565b10156106575760405162461bcd60e51b815260206004820152601e60248201527f6465706f73697420616d6f756e7420657863656564732062616c616e63650000604482015260640161019e565b6002546040516323b872dd60e01b8152336004820152306024820152604481018490526000916001600160a01b0316906323b872dd906064016020604051808303816000875af11580156106af573d6000803e3d6000fd5b505050506040513d601f19601f820116820180604052508101906106d391906108c7565b9050806107185760405162461bcd60e51b81526020600482015260136024820152721d1c985b9cd9995c919c9bdb4811985a5b1959606a1b604482015260640161019e565b33600090815260208190526040812080548592906107379084906108b4565b90915550909392505050565b6107888282604051602401610759929190610915565b60408051601f198184030181529190526020810180516001600160e01b031663319af33360e01b17905261078c565b5050565b61079581610798565b50565b60006a636f6e736f6c652e6c6f679050600080835160208501845afa505050565b80356001600160a01b038116811461032757600080fd5b600080604083850312156107e357600080fd5b6107ec836107b9565b946020939093013593505050565b60006020828403121561080c57600080fd5b5035919050565b600080600080600080600060e0888a03121561082e57600080fd5b610837886107b9565b96506020880135955060408801359450606088013560ff8116811461085b57600080fd5b9699959850939660808101359560a0820135955060c0909101359350915050565b60006020828403121561088e57600080fd5b610897826107b9565b9392505050565b634e487b7160e01b600052601160045260246000fd5b808201808211156101d9576101d961089e565b6000602082840312156108d957600080fd5b8151801515811461089757600080fd5b818103818111156101d9576101d961089e565b60006020828403121561090e57600080fd5b5051919050565b604081526000835180604084015260005b818110156109435760208187018101516060868401015201610926565b50600060608285018101919091526001600160a01b03949094166020840152601f01601f19169091019091019291505056fea2646970667358221220e3e09e8faac1ebc89d8015c21074fa8ac7057785982ccc3bcab2e204c3dce32064736f6c634300081c0033","linkReferences":{}},"methodIdentifiers":{"deposit(uint256)":"b6b55f25","deposited(address)":"cb13cddb","owner()":"8da5cb5b","permitDeposit(address,uint256,uint256,uint8,bytes32,bytes32,uint256)":"9bcb75ab","token()":"fc0c546a","tokensReceived(address,uint256)":"24a756d1","withdraw(uint256)":"2e1a7d4d"},"id":55}