{"abi":[{"type":"constructor","inputs":[{"name":"_name","type":"string","internalType":"string"},{"name":"_symbol","type":"string","internalType":"string"},{"name":"_initTotalSupply","type":"uint256","internalType":"uint256"}],"stateMutability":"nonpayable"},{"type":"function","name":"allowance","inputs":[{"name":"owner","type":"address","internalType":"address"},{"name":"spender","type":"address","internalType":"address"}],"outputs":[{"name":"","type":"uint256","internalType":"uint256"}],"stateMutability":"view"},{"type":"function","name":"approve","inputs":[{"name":"spender","type":"address","internalType":"address"},{"name":"value","type":"uint256","internalType":"uint256"}],"outputs":[{"name":"","type":"bool","internalType":"bool"}],"stateMutability":"nonpayable"},{"type":"function","name":"balanceOf","inputs":[{"name":"account","type":"address","internalType":"address"}],"outputs":[{"name":"","type":"uint256","internalType":"uint256"}],"stateMutability":"view"},{"type":"function","name":"decimals","inputs":[],"outputs":[{"name":"","type":"uint8","internalType":"uint8"}],"stateMutability":"view"},{"type":"function","name":"name","inputs":[],"outputs":[{"name":"","type":"string","internalType":"string"}],"stateMutability":"view"},{"type":"function","name":"symbol","inputs":[],"outputs":[{"name":"","type":"string","internalType":"string"}],"stateMutability":"view"},{"type":"function","name":"totalSupply","inputs":[],"outputs":[{"name":"","type":"uint256","internalType":"uint256"}],"stateMutability":"view"},{"type":"function","name":"transfer","inputs":[{"name":"to","type":"address","internalType":"address"},{"name":"value","type":"uint256","internalType":"uint256"}],"outputs":[{"name":"","type":"bool","internalType":"bool"}],"stateMutability":"nonpayable"},{"type":"function","name":"transferFrom","inputs":[{"name":"from","type":"address","internalType":"address"},{"name":"to","type":"address","internalType":"address"},{"name":"value","type":"uint256","internalType":"uint256"}],"outputs":[{"name":"","type":"bool","internalType":"bool"}],"stateMutability":"nonpayable"},{"type":"function","name":"transferWithCallback","inputs":[{"name":"recipient","type":"address","internalType":"address"},{"name":"amount","type":"uint256","internalType":"uint256"}],"outputs":[{"name":"","type":"bool","internalType":"bool"}],"stateMutability":"nonpayable"},{"type":"event","name":"Approval","inputs":[{"name":"owner","type":"address","indexed":true,"internalType":"address"},{"name":"spender","type":"address","indexed":true,"internalType":"address"},{"name":"value","type":"uint256","indexed":false,"internalType":"uint256"}],"anonymous":false},{"type":"event","name":"Transfer","inputs":[{"name":"from","type":"address","indexed":true,"internalType":"address"},{"name":"to","type":"address","indexed":true,"internalType":"address"},{"name":"value","type":"uint256","indexed":false,"internalType":"uint256"}],"anonymous":false},{"type":"error","name":"ERC20InsufficientAllowance","inputs":[{"name":"spender","type":"address","internalType":"address"},{"name":"allowance","type":"uint256","internalType":"uint256"},{"name":"needed","type":"uint256","internalType":"uint256"}]},{"type":"error","name":"ERC20InsufficientBalance","inputs":[{"name":"sender","type":"address","internalType":"address"},{"name":"balance","type":"uint256","internalType":"uint256"},{"name":"needed","type":"uint256","internalType":"uint256"}]},{"type":"error","name":"ERC20InvalidApprover","inputs":[{"name":"approver","type":"address","internalType":"address"}]},{"type":"error","name":"ERC20InvalidReceiver","inputs":[{"name":"receiver","type":"address","internalType":"address"}]},{"type":"error","name":"ERC20InvalidSender","inputs":[{"name":"sender","type":"address","internalType":"address"}]},{"type":"error","name":"ERC20InvalidSpender","inputs":[{"name":"spender","type":"address","internalType":"address"}]}],"bytecode":{"object":"0x608060405234801561001057600080fd5b50604051610d75380380610d7583398101604081905261002f916102a8565b8282600361003d83826103a3565b50600461004a82826103a3565b5050506100793361005f61008160201b60201c565b61006a90600a610560565b6100749084610576565b610086565b5050506105a0565b601290565b6001600160a01b0382166100b55760405163ec442f0560e01b8152600060048201526024015b60405180910390fd5b6100c1600083836100c5565b5050565b6001600160a01b0383166100f05780600260008282546100e5919061058d565b909155506101629050565b6001600160a01b038316600090815260208190526040902054818110156101435760405163391434e360e21b81526001600160a01b038516600482015260248101829052604481018390526064016100ac565b6001600160a01b03841660009081526020819052604090209082900390555b6001600160a01b03821661017e5760028054829003905561019d565b6001600160a01b03821660009081526020819052604090208054820190555b816001600160a01b0316836001600160a01b03167fddf252ad1be2c89b69c2b068fc378daa952ba7f163c4a11628f55a4df523b3ef836040516101e291815260200190565b60405180910390a3505050565b634e487b7160e01b600052604160045260246000fd5b600082601f83011261021657600080fd5b81516001600160401b0381111561022f5761022f6101ef565b604051601f8201601f19908116603f011681016001600160401b038111828210171561025d5761025d6101ef565b60405281815283820160200185101561027557600080fd5b60005b8281101561029457602081860181015183830182015201610278565b506000918101602001919091529392505050565b6000806000606084860312156102bd57600080fd5b83516001600160401b038111156102d357600080fd5b6102df86828701610205565b602086015190945090506001600160401b038111156102fd57600080fd5b61030986828701610205565b925050604084015190509250925092565b600181811c9082168061032e57607f821691505b60208210810361034e57634e487b7160e01b600052602260045260246000fd5b50919050565b601f82111561039e57806000526020600020601f840160051c8101602085101561037b5750805b601f840160051c820191505b8181101561039b5760008155600101610387565b50505b505050565b81516001600160401b038111156103bc576103bc6101ef565b6103d0816103ca845461031a565b84610354565b6020601f82116001811461040457600083156103ec5750848201515b600019600385901b1c1916600184901b17845561039b565b600084815260208120601f198516915b828110156104345787850151825560209485019460019092019101610414565b50848210156104525786840151600019600387901b60f8161c191681555b50505050600190811b01905550565b634e487b7160e01b600052601160045260246000fd5b6001815b60018411156104b25780850481111561049657610496610461565b60018416156104a457908102905b60019390931c92800261047b565b935093915050565b6000826104c95750600161055a565b816104d65750600061055a565b81600181146104ec57600281146104f657610512565b600191505061055a565b60ff84111561050757610507610461565b50506001821b61055a565b5060208310610133831016604e8410600b8410161715610535575081810a61055a565b6105426000198484610477565b806000190482111561055657610556610461565b0290505b92915050565b600061056f60ff8416836104ba565b9392505050565b808202811582820484141761055a5761055a610461565b8082018082111561055a5761055a610461565b6107c6806105af6000396000f3fe608060405234801561001057600080fd5b506004361061009e5760003560e01c8063313ce56711610066578063313ce5671461011c57806370a082311461012b57806395d89b4114610154578063a9059cbb1461015c578063dd62ed3e1461016f57600080fd5b806306fdde03146100a3578063095ea7b3146100c157806318160ddd146100e45780631a825b75146100f657806323b872dd14610109575b600080fd5b6100ab6101a8565b6040516100b8919061060f565b60405180910390f35b6100d46100cf366004610679565b61023a565b60405190151581526020016100b8565b6002545b6040519081526020016100b8565b6100d4610104366004610679565b610254565b6100d46101173660046106a3565b6102da565b604051601281526020016100b8565b6100e86101393660046106e0565b6001600160a01b031660009081526020819052604090205490565b6100ab6102fe565b6100d461016a366004610679565b61030d565b6100e861017d366004610702565b6001600160a01b03918216600090815260016020908152604080832093909416825291909152205490565b6060600380546101b790610735565b80601f01602080910402602001604051908101604052809291908181526020018280546101e390610735565b80156102305780601f1061020557610100808354040283529160200191610230565b820191906000526020600020905b81548152906001019060200180831161021357829003601f168201915b5050505050905090565b60003361024881858561031b565b60019150505b92915050565b60006102613384846102da565b50823b156102d1576040516329e9a3b960e01b81523360048201526001600160a01b0384166024820181905260448201849052906329e9a3b990606401600060405180830381600087803b1580156102b857600080fd5b505af11580156102cc573d6000803e3d6000fd5b505050505b50600192915050565b6000336102e885828561032d565b6102f38585856103b1565b506001949350505050565b6060600480546101b790610735565b6000336102488185856103b1565b6103288383836001610410565b505050565b6001600160a01b038381166000908152600160209081526040808320938616835292905220546000198110156103ab578181101561039c57604051637dc7a0d960e11b81526001600160a01b038416600482015260248101829052604481018390526064015b60405180910390fd5b6103ab84848484036000610410565b50505050565b6001600160a01b0383166103db57604051634b637e8f60e11b815260006004820152602401610393565b6001600160a01b0382166104055760405163ec442f0560e01b815260006004820152602401610393565b6103288383836104e5565b6001600160a01b03841661043a5760405163e602df0560e01b815260006004820152602401610393565b6001600160a01b03831661046457604051634a1406b160e11b815260006004820152602401610393565b6001600160a01b03808516600090815260016020908152604080832093871683529290522082905580156103ab57826001600160a01b0316846001600160a01b03167f8c5be1e5ebec7d5bd14f71427d1e84f3dd0314c0f7b2291e5b200ac8c7c3b925846040516104d791815260200190565b60405180910390a350505050565b6001600160a01b038316610510578060026000828254610505919061076f565b909155506105829050565b6001600160a01b038316600090815260208190526040902054818110156105635760405163391434e360e21b81526001600160a01b03851660048201526024810182905260448101839052606401610393565b6001600160a01b03841660009081526020819052604090209082900390555b6001600160a01b03821661059e576002805482900390556105bd565b6001600160a01b03821660009081526020819052604090208054820190555b816001600160a01b0316836001600160a01b03167fddf252ad1be2c89b69c2b068fc378daa952ba7f163c4a11628f55a4df523b3ef8360405161060291815260200190565b60405180910390a3505050565b602081526000825180602084015260005b8181101561063d5760208186018101516040868401015201610620565b506000604082850101526040601f19601f83011684010191505092915050565b80356001600160a01b038116811461067457600080fd5b919050565b6000806040838503121561068c57600080fd5b6106958361065d565b946020939093013593505050565b6000806000606084860312156106b857600080fd5b6106c18461065d565b92506106cf6020850161065d565b929592945050506040919091013590565b6000602082840312156106f257600080fd5b6106fb8261065d565b9392505050565b6000806040838503121561071557600080fd5b61071e8361065d565b915061072c6020840161065d565b90509250929050565b600181811c9082168061074957607f821691505b60208210810361076957634e487b7160e01b600052602260045260246000fd5b50919050565b8082018082111561024e57634e487b7160e01b600052601160045260246000fdfea2646970667358221220a3407f186bf6bf7d1bf5bb03e3242fe45e98073aa55ff974f4f747a51cb9eb0564736f6c634300081c0033","linkReferences":{}},"methodIdentifiers":{"allowance(address,address)":"dd62ed3e","approve(address,uint256)":"095ea7b3","balanceOf(address)":"70a08231","decimals()":"313ce567","name()":"06fdde03","symbol()":"95d89b41","totalSupply()":"18160ddd","transfer(address,uint256)":"a9059cbb","transferFrom(address,address,uint256)":"23b872dd","transferWithCallback(address,uint256)":"1a825b75"},"id":51}