{"abi":[{"type":"constructor","inputs":[{"name":"_name","type":"string","internalType":"string"},{"name":"_symbol","type":"string","internalType":"string"},{"name":"to","type":"address","internalType":"address"}],"stateMutability":"nonpayable"},{"type":"function","name":"DOMAIN_SEPARATOR","inputs":[],"outputs":[{"name":"","type":"bytes32","internalType":"bytes32"}],"stateMutability":"view"},{"type":"function","name":"allowance","inputs":[{"name":"owner","type":"address","internalType":"address"},{"name":"spender","type":"address","internalType":"address"}],"outputs":[{"name":"","type":"uint256","internalType":"uint256"}],"stateMutability":"view"},{"type":"function","name":"approve","inputs":[{"name":"spender","type":"address","internalType":"address"},{"name":"value","type":"uint256","internalType":"uint256"}],"outputs":[{"name":"","type":"bool","internalType":"bool"}],"stateMutability":"nonpayable"},{"type":"function","name":"balanceOf","inputs":[{"name":"account","type":"address","internalType":"address"}],"outputs":[{"name":"","type":"uint256","internalType":"uint256"}],"stateMutability":"view"},{"type":"function","name":"decimals","inputs":[],"outputs":[{"name":"","type":"uint8","internalType":"uint8"}],"stateMutability":"view"},{"type":"function","name":"eip712Domain","inputs":[],"outputs":[{"name":"fields","type":"bytes1","internalType":"bytes1"},{"name":"name","type":"string","internalType":"string"},{"name":"version","type":"string","internalType":"string"},{"name":"chainId","type":"uint256","internalType":"uint256"},{"name":"verifyingContract","type":"address","internalType":"address"},{"name":"salt","type":"bytes32","internalType":"bytes32"},{"name":"extensions","type":"uint256[]","internalType":"uint256[]"}],"stateMutability":"view"},{"type":"function","name":"name","inputs":[],"outputs":[{"name":"","type":"string","internalType":"string"}],"stateMutability":"view"},{"type":"function","name":"nonces","inputs":[{"name":"owner","type":"address","internalType":"address"}],"outputs":[{"name":"","type":"uint256","internalType":"uint256"}],"stateMutability":"view"},{"type":"function","name":"permit","inputs":[{"name":"owner","type":"address","internalType":"address"},{"name":"spender","type":"address","internalType":"address"},{"name":"value","type":"uint256","internalType":"uint256"},{"name":"deadline","type":"uint256","internalType":"uint256"},{"name":"v","type":"uint8","internalType":"uint8"},{"name":"r","type":"bytes32","internalType":"bytes32"},{"name":"s","type":"bytes32","internalType":"bytes32"}],"outputs":[],"stateMutability":"nonpayable"},{"type":"function","name":"symbol","inputs":[],"outputs":[{"name":"","type":"string","internalType":"string"}],"stateMutability":"view"},{"type":"function","name":"totalSupply","inputs":[],"outputs":[{"name":"","type":"uint256","internalType":"uint256"}],"stateMutability":"view"},{"type":"function","name":"transfer","inputs":[{"name":"to","type":"address","internalType":"address"},{"name":"value","type":"uint256","internalType":"uint256"}],"outputs":[{"name":"","type":"bool","internalType":"bool"}],"stateMutability":"nonpayable"},{"type":"function","name":"transferFrom","inputs":[{"name":"from","type":"address","internalType":"address"},{"name":"to","type":"address","internalType":"address"},{"name":"value","type":"uint256","internalType":"uint256"}],"outputs":[{"name":"","type":"bool","internalType":"bool"}],"stateMutability":"nonpayable"},{"type":"function","name":"transferWithCallback","inputs":[{"name":"recipient","type":"address","internalType":"address"},{"name":"amount","type":"uint256","internalType":"uint256"}],"outputs":[{"name":"","type":"bool","internalType":"bool"}],"stateMutability":"nonpayable"},{"type":"event","name":"Approval","inputs":[{"name":"owner","type":"address","indexed":true,"internalType":"address"},{"name":"spender","type":"address","indexed":true,"internalType":"address"},{"name":"value","type":"uint256","indexed":false,"internalType":"uint256"}],"anonymous":false},{"type":"event","name":"EIP712DomainChanged","inputs":[],"anonymous":false},{"type":"event","name":"Transfer","inputs":[{"name":"from","type":"address","indexed":true,"internalType":"address"},{"name":"to","type":"address","indexed":true,"internalType":"address"},{"name":"value","type":"uint256","indexed":false,"internalType":"uint256"}],"anonymous":false},{"type":"error","name":"ECDSAInvalidSignature","inputs":[]},{"type":"error","name":"ECDSAInvalidSignatureLength","inputs":[{"name":"length","type":"uint256","internalType":"uint256"}]},{"type":"error","name":"ECDSAInvalidSignatureS","inputs":[{"name":"s","type":"bytes32","internalType":"bytes32"}]},{"type":"error","name":"ERC20InsufficientAllowance","inputs":[{"name":"spender","type":"address","internalType":"address"},{"name":"allowance","type":"uint256","internalType":"uint256"},{"name":"needed","type":"uint256","internalType":"uint256"}]},{"type":"error","name":"ERC20InsufficientBalance","inputs":[{"name":"sender","type":"address","internalType":"address"},{"name":"balance","type":"uint256","internalType":"uint256"},{"name":"needed","type":"uint256","internalType":"uint256"}]},{"type":"error","name":"ERC20InvalidApprover","inputs":[{"name":"approver","type":"address","internalType":"address"}]},{"type":"error","name":"ERC20InvalidReceiver","inputs":[{"name":"receiver","type":"address","internalType":"address"}]},{"type":"error","name":"ERC20InvalidSender","inputs":[{"name":"sender","type":"address","internalType":"address"}]},{"type":"error","name":"ERC20InvalidSpender","inputs":[{"name":"spender","type":"address","internalType":"address"}]},{"type":"error","name":"ERC2612ExpiredSignature","inputs":[{"name":"deadline","type":"uint256","internalType":"uint256"}]},{"type":"error","name":"ERC2612InvalidSigner","inputs":[{"name":"signer","type":"address","internalType":"address"},{"name":"owner","type":"address","internalType":"address"}]},{"type":"error","name":"InvalidAccountNonce","inputs":[{"name":"account","type":"address","internalType":"address"},{"name":"currentNonce","type":"uint256","internalType":"uint256"}]},{"type":"error","name":"InvalidShortString","inputs":[]},{"type":"error","name":"StringTooLong","inputs":[{"name":"str","type":"string","internalType":"string"}]}],"bytecode":{"object":"0x61016060405234801561001157600080fd5b506040516115f03803806115f0833981016040819052610030916103d4565b6040805180820190915260018152603160f81b6020820152839081908185600361005a83826104e8565b50600461006782826104e8565b5061007791508390506005610137565b61012052610086816006610137565b61014052815160208084019190912060e052815190820120610100524660a05261011360e05161010051604080517f8b73c3c69bb8fe3d512ecc4cf759cc79239f7b179b0ffacaa9a75d522b39400f60208201529081019290925260608201524660808201523060a082015260009060c00160405160208183030381529060405280519060200120905090565b60805250503060c0525061012f81670de0b6b3a764000061016a565b50505061061e565b60006020835110156101535761014c836101a9565b9050610164565b8161015e84826104e8565b5060ff90505b92915050565b6001600160a01b0382166101995760405163ec442f0560e01b8152600060048201526024015b60405180910390fd5b6101a5600083836101e7565b5050565b600080829050601f815111156101d4578260405163305a27a960e01b815260040161019091906105a6565b80516101df826105d9565b179392505050565b6001600160a01b03831661021257806002600082825461020791906105fd565b909155506102849050565b6001600160a01b038316600090815260208190526040902054818110156102655760405163391434e360e21b81526001600160a01b03851660048201526024810182905260448101839052606401610190565b6001600160a01b03841660009081526020819052604090209082900390555b6001600160a01b0382166102a0576002805482900390556102bf565b6001600160a01b03821660009081526020819052604090208054820190555b816001600160a01b0316836001600160a01b03167fddf252ad1be2c89b69c2b068fc378daa952ba7f163c4a11628f55a4df523b3ef8360405161030491815260200190565b60405180910390a3505050565b634e487b7160e01b600052604160045260246000fd5b60005b8381101561034257818101518382015260200161032a565b50506000910152565b600082601f83011261035c57600080fd5b81516001600160401b0381111561037557610375610311565b604051601f8201601f19908116603f011681016001600160401b03811182821017156103a3576103a3610311565b6040528181528382016020018510156103bb57600080fd5b6103cc826020830160208701610327565b949350505050565b6000806000606084860312156103e957600080fd5b83516001600160401b038111156103ff57600080fd5b61040b8682870161034b565b602086015190945090506001600160401b0381111561042957600080fd5b6104358682870161034b565b604086015190935090506001600160a01b038116811461045457600080fd5b809150509250925092565b600181811c9082168061047357607f821691505b60208210810361049357634e487b7160e01b600052602260045260246000fd5b50919050565b601f8211156104e357806000526020600020601f840160051c810160208510156104c05750805b601f840160051c820191505b818110156104e057600081556001016104cc565b50505b505050565b81516001600160401b0381111561050157610501610311565b6105158161050f845461045f565b84610499565b6020601f82116001811461054957600083156105315750848201515b600019600385901b1c1916600184901b1784556104e0565b600084815260208120601f198516915b828110156105795787850151825560209485019460019092019101610559565b50848210156105975786840151600019600387901b60f8161c191681555b50505050600190811b01905550565b60208152600082518060208401526105c5816040850160208701610327565b601f01601f19169190910160400192915050565b805160208083015191908110156104935760001960209190910360031b1b16919050565b8082018082111561016457634e487b7160e01b600052601160045260246000fd5b60805160a05160c05160e051610100516101205161014051610f7861067860003960006107a4015260006107770152600061071f015260006106f7015260006106520152600061067c015260006106a60152610f786000f3fe608060405234801561001057600080fd5b50600436106100ea5760003560e01c806370a082311161008c57806395d89b411161006657806395d89b41146101d6578063a9059cbb146101de578063d505accf146101f1578063dd62ed3e1461020657600080fd5b806370a082311461017f5780637ecebe00146101a857806384b0196e146101bb57600080fd5b80631a825b75116100c85780631a825b751461014257806323b872dd14610155578063313ce567146101685780633644e5151461017757600080fd5b806306fdde03146100ef578063095ea7b31461010d57806318160ddd14610130575b600080fd5b6100f761023f565b6040516101049190610cdb565b60405180910390f35b61012061011b366004610d11565b6102d1565b6040519015158152602001610104565b6002545b604051908152602001610104565b610120610150366004610d11565b6102eb565b610120610163366004610d3b565b610371565b60405160128152602001610104565b610134610395565b61013461018d366004610d78565b6001600160a01b031660009081526020819052604090205490565b6101346101b6366004610d78565b6103a4565b6101c36103c2565b6040516101049796959493929190610d93565b6100f7610408565b6101206101ec366004610d11565b610417565b6102046101ff366004610e2b565b610425565b005b610134610214366004610e9e565b6001600160a01b03918216600090815260016020908152604080832093909416825291909152205490565b60606003805461024e90610ed1565b80601f016020809104026020016040519081016040528092919081815260200182805461027a90610ed1565b80156102c75780601f1061029c576101008083540402835291602001916102c7565b820191906000526020600020905b8154815290600101906020018083116102aa57829003601f168201915b5050505050905090565b6000336102df818585610556565b60019150505b92915050565b60006102f8338484610371565b50823b15610368576040516329e9a3b960e01b81523360048201526001600160a01b0384166024820181905260448201849052906329e9a3b990606401600060405180830381600087803b15801561034f57600080fd5b505af1158015610363573d6000803e3d6000fd5b505050505b50600192915050565b60003361037f858285610568565b61038a8585856105e6565b506001949350505050565b600061039f610645565b905090565b6001600160a01b0381166000908152600760205260408120546102e5565b6000606080600080600060606103d6610770565b6103de61079d565b60408051600080825260208201909252600f60f81b9b939a50919850469750309650945092509050565b60606004805461024e90610ed1565b6000336102df8185856105e6565b8342111561044e5760405163313c898160e11b8152600481018590526024015b60405180910390fd5b60007f6e71edae12b1b97f4d1f60370fef10105fa2faae0126114a169c64845d6126c988888861049b8c6001600160a01b0316600090815260076020526040902080546001810190915590565b6040805160208101969096526001600160a01b0394851690860152929091166060840152608083015260a082015260c0810186905260e00160405160208183030381529060405280519060200120905060006104f9828686866107ca565b9050886001600160a01b0316816001600160a01b031614610540576040516325c0072360e11b81526001600160a01b0380831660048301528a166024820152604401610445565b61054b898989610556565b505050505050505050565b61056383838360016107f8565b505050565b6001600160a01b0383811660009081526001602090815260408083209386168352929052205460001981146105e057818110156105d157604051637dc7a0d960e11b81526001600160a01b03841660048201526024810182905260448101839052606401610445565b6105e0848484840360006107f8565b50505050565b6001600160a01b03831661061057604051634b637e8f60e11b815260006004820152602401610445565b6001600160a01b03821661063a5760405163ec442f0560e01b815260006004820152602401610445565b6105638383836108cd565b6000306001600160a01b037f00000000000000000000000000000000000000000000000000000000000000001614801561069e57507f000000000000000000000000000000000000000000000000000000000000000046145b156106c857507f000000000000000000000000000000000000000000000000000000000000000090565b61039f604080517f8b73c3c69bb8fe3d512ecc4cf759cc79239f7b179b0ffacaa9a75d522b39400f60208201527f0000000000000000000000000000000000000000000000000000000000000000918101919091527f000000000000000000000000000000000000000000000000000000000000000060608201524660808201523060a082015260009060c00160405160208183030381529060405280519060200120905090565b606061039f7f000000000000000000000000000000000000000000000000000000000000000060056109f7565b606061039f7f000000000000000000000000000000000000000000000000000000000000000060066109f7565b6000806000806107dc88888888610aa2565b9250925092506107ec8282610b71565b50909695505050505050565b6001600160a01b0384166108225760405163e602df0560e01b815260006004820152602401610445565b6001600160a01b03831661084c57604051634a1406b160e11b815260006004820152602401610445565b6001600160a01b03808516600090815260016020908152604080832093871683529290522082905580156105e057826001600160a01b0316846001600160a01b03167f8c5be1e5ebec7d5bd14f71427d1e84f3dd0314c0f7b2291e5b200ac8c7c3b925846040516108bf91815260200190565b60405180910390a350505050565b6001600160a01b0383166108f85780600260008282546108ed9190610f0b565b9091555061096a9050565b6001600160a01b0383166000908152602081905260409020548181101561094b5760405163391434e360e21b81526001600160a01b03851660048201526024810182905260448101839052606401610445565b6001600160a01b03841660009081526020819052604090209082900390555b6001600160a01b038216610986576002805482900390556109a5565b6001600160a01b03821660009081526020819052604090208054820190555b816001600160a01b0316836001600160a01b03167fddf252ad1be2c89b69c2b068fc378daa952ba7f163c4a11628f55a4df523b3ef836040516109ea91815260200190565b60405180910390a3505050565b606060ff8314610a1157610a0a83610c2e565b90506102e5565b818054610a1d90610ed1565b80601f0160208091040260200160405190810160405280929190818152602001828054610a4990610ed1565b8015610a965780601f10610a6b57610100808354040283529160200191610a96565b820191906000526020600020905b815481529060010190602001808311610a7957829003601f168201915b505050505090506102e5565b600080807f7fffffffffffffffffffffffffffffff5d576e7357a4501ddfe92f46681b20a0841115610add5750600091506003905082610b67565b604080516000808252602082018084528a905260ff891692820192909252606081018790526080810186905260019060a0016020604051602081039080840390855afa158015610b31573d6000803e3d6000fd5b5050604051601f1901519150506001600160a01b038116610b5d57506000925060019150829050610b67565b9250600091508190505b9450945094915050565b6000826003811115610b8557610b85610f2c565b03610b8e575050565b6001826003811115610ba257610ba2610f2c565b03610bc05760405163f645eedf60e01b815260040160405180910390fd5b6002826003811115610bd457610bd4610f2c565b03610bf55760405163fce698f760e01b815260048101829052602401610445565b6003826003811115610c0957610c09610f2c565b03610c2a576040516335e2f38360e21b815260048101829052602401610445565b5050565b60606000610c3b83610c6d565b604080516020808252818301909252919250600091906020820181803683375050509182525060208101929092525090565b600060ff8216601f8111156102e557604051632cd44ac360e21b815260040160405180910390fd5b6000815180845260005b81811015610cbb57602081850181015186830182015201610c9f565b506000602082860101526020601f19601f83011685010191505092915050565b602081526000610cee6020830184610c95565b9392505050565b80356001600160a01b0381168114610d0c57600080fd5b919050565b60008060408385031215610d2457600080fd5b610d2d83610cf5565b946020939093013593505050565b600080600060608486031215610d5057600080fd5b610d5984610cf5565b9250610d6760208501610cf5565b929592945050506040919091013590565b600060208284031215610d8a57600080fd5b610cee82610cf5565b60ff60f81b8816815260e060208201526000610db260e0830189610c95565b8281036040840152610dc48189610c95565b606084018890526001600160a01b038716608085015260a0840186905283810360c08501528451808252602080870193509091019060005b81811015610e1a578351835260209384019390920191600101610dfc565b50909b9a5050505050505050505050565b600080600080600080600060e0888a031215610e4657600080fd5b610e4f88610cf5565b9650610e5d60208901610cf5565b95506040880135945060608801359350608088013560ff81168114610e8157600080fd5b9699959850939692959460a0840135945060c09093013592915050565b60008060408385031215610eb157600080fd5b610eba83610cf5565b9150610ec860208401610cf5565b90509250929050565b600181811c90821680610ee557607f821691505b602082108103610f0557634e487b7160e01b600052602260045260246000fd5b50919050565b808201808211156102e557634e487b7160e01b600052601160045260246000fd5b634e487b7160e01b600052602160045260246000fdfea2646970667358221220d3b3c67d647f585400a91792a81ee2709a31d4e0939737f1f196e8968d1263d764736f6c634300081c0033","linkReferences":{}},"methodIdentifiers":{"DOMAIN_SEPARATOR()":"3644e515","allowance(address,address)":"dd62ed3e","approve(address,uint256)":"095ea7b3","balanceOf(address)":"70a08231","decimals()":"313ce567","eip712Domain()":"84b0196e","name()":"06fdde03","nonces(address)":"7ecebe00","permit(address,address,uint256,uint256,uint8,bytes32,bytes32)":"d505accf","symbol()":"95d89b41","totalSupply()":"18160ddd","transfer(address,uint256)":"a9059cbb","transferFrom(address,address,uint256)":"23b872dd","transferWithCallback(address,uint256)":"1a825b75"},"id":43}